{
  "_format": "hh-sol-artifact-1",
  "contractName": "LandRegistry",
  "sourceName": "contracts/LandRegistry.sol",
  "abi": [
    {
      "anonymous": false,
      "inputs": [
        {
          "indexed": true,
          "internalType": "address",
          "name": "owner",
          "type": "address"
        },
        {
          "indexed": false,
          "internalType": "string",
          "name": "landHash",
          "type": "string"
        }
      ],
      "name": "LandRegistered",
      "type": "event"
    },
    {
      "inputs": [
        {
          "internalType": "string",
          "name": "",
          "type": "string"
        }
      ],
      "name": "landRecords",
      "outputs": [
        {
          "internalType": "address",
          "name": "",
          "type": "address"
        }
      ],
      "stateMutability": "view",
      "type": "function"
    },
    {
      "inputs": [
        {
          "internalType": "string",
          "name": "_landHash",
          "type": "string"
        }
      ],
      "name": "registerLand",
      "outputs": [],
      "stateMutability": "nonpayable",
      "type": "function"
    },
    {
      "inputs": [
        {
          "internalType": "string",
          "name": "_landHash",
          "type": "string"
        }
      ],
      "name": "verifyLand",
      "outputs": [
        {
          "internalType": "address",
          "name": "",
          "type": "address"
        }
      ],
      "stateMutability": "view",
      "type": "function"
    }
  ],
  "bytecode": "0x608060405234801561001057600080fd5b506105f5806100206000396000f3fe608060405234801561001057600080fd5b50600436106100415760003560e01c8063b0befdaf14610046578063d8a812c214610076578063fbed216b146100a6575b600080fd5b610060600480360381019061005b9190610315565b6100c2565b60405161006d9190610426565b60405180910390f35b610090600480360381019061008b9190610315565b610109565b60405161009d9190610426565b60405180910390f35b6100c060048036038101906100bb9190610315565b610152565b005b600080826040516100d3919061040f565b908152602001604051809103902060009054906101000a900473ffffffffffffffffffffffffffffffffffffffff169050919050565b6000818051602081018201805184825260208301602085012081835280955050505050506000915054906101000a900473ffffffffffffffffffffffffffffffffffffffff1681565b600073ffffffffffffffffffffffffffffffffffffffff1660008260405161017a919061040f565b908152602001604051809103902060009054906101000a900473ffffffffffffffffffffffffffffffffffffffff1673ffffffffffffffffffffffffffffffffffffffff16146101ff576040517f08c379a00000000000000000000000000000000000000000000000000000000081526004016101f690610463565b60405180910390fd5b33600082604051610210919061040f565b908152602001604051809103902060006101000a81548173ffffffffffffffffffffffffffffffffffffffff021916908373ffffffffffffffffffffffffffffffffffffffff1602179055503373ffffffffffffffffffffffffffffffffffffffff167fd3ddfe4dc6952a1199146e37a05ac2143cec7cce4eb319bbe5be95bf926b0331826040516102a29190610441565b60405180910390a250565b60006102c06102bb846104b4565b610483565b9050828152602081018484840111156102d857600080fd5b6102e384828561053d565b509392505050565b600082601f8301126102fc57600080fd5b813561030c8482602086016102ad565b91505092915050565b60006020828403121561032757600080fd5b600082013567ffffffffffffffff81111561034157600080fd5b61034d848285016102eb565b91505092915050565b61035f8161050b565b82525050565b6000610370826104e4565b61037a81856104ef565b935061038a81856020860161054c565b610393816105ae565b840191505092915050565b60006103a9826104e4565b6103b38185610500565b93506103c381856020860161054c565b80840191505092915050565b60006103dc6017836104ef565b91507f4c616e6420616c726561647920726567697374657265640000000000000000006000830152602082019050919050565b600061041b828461039e565b915081905092915050565b600060208201905061043b6000830184610356565b92915050565b6000602082019050818103600083015261045b8184610365565b905092915050565b6000602082019050818103600083015261047c816103cf565b9050919050565b6000604051905081810181811067ffffffffffffffff821117156104aa576104a961057f565b5b8060405250919050565b600067ffffffffffffffff8211156104cf576104ce61057f565b5b601f19601f8301169050602081019050919050565b600081519050919050565b600082825260208201905092915050565b600081905092915050565b60006105168261051d565b9050919050565b600073ffffffffffffffffffffffffffffffffffffffff82169050919050565b82818337600083830152505050565b60005b8381101561056a57808201518184015260208101905061054f565b83811115610579576000848401525b50505050565b7f4e487b7100000000000000000000000000000000000000000000000000000000600052604160045260246000fd5b6000601f19601f830116905091905056fea2646970667358221220772bd9627e9f64fb181b61705032a7be388dbd70829f196a4206f85fd7e207bd64736f6c63430008000033",
  "linkReferences": {},
  "deployedLinkReferences": {}
}